:020000040800F2
:10000000D8070020AD0E00085D0200085F0200085E
:1000100063020008670200086B020008000000008D
:100020000000000000000000000000006F02000857
:100030007102000800000000730200087502000849
:10004000C70E0008C70E0008C70E0008C70E00083C
:10005000C70E0008C70E0008C70E0008C70E00082C
:10006000C70E0008C70E0008C70E0008C70E00081C
:10007000C70E0008C70E0008C70E0008C70E00080C
:10008000C70E0008C70E0008C70E0008C70E0008FC
:1000900077020008C70E0008C70E0008C70E000848
:1000A000C70E0008C70E0008C70E0008C70E0008DC
:1000B000C70E0008C70E0008C70E0008C70E0008CC
:1000C000C70E0008C70E0008C70E0008C70E0008BC
:1000D000C70E0008C70E0008C70E0008C70E0008AC
:1000E000C70E0008C70E0008C70E000800F002F88F
:1000F00000F05CF80AA090E8000C82448344AAF166
:100100000107DA4501D100F051F8AFF2090EBAE863
:100110000F0013F0010F18BFFB1A43F0010318473B
:10012000882D0000A82D00000A444FF0000C10F8A4
:10013000013B13F0070408BF10F8014B1D1108BF65
:1001400010F8015B641E05D010F8016B641E01F805
:10015000016BF9D113F0080F1EBF10F8014BAD1C55
:100160000C1B09D16D1E58BF01F801CBFAD505E073
:1001700014F8016B01F8016B6D1EF9D59142D6D3CD
:10018000704700000023002400250026103A28BFF5
:1001900078C1FBD8520728BF30C148BF0B607047F9
:1001A0001FB502F026FE1FBD10B510BD02F0E5FD23
:1001B0001146FFF7F5FF00F030F802F003FE03B43C
:1001C000FFF7F2FF03BC02F00DFE000070B504461D
:1001D000002509E014F8012B2846691CCDB2194905
:1001E0000A54162D00D102E020780028F2D100BF79
:1001F00016224FF48C71134801F06CFE1249096805
:1002000089B248F6BF7201EA020080F0100080F067
:1002100020000E49C1F8080C70BD02F08DFA48208C
:1002200000F064FE02F0C3FA02F0D9FA01F056FCC5
:1002300006E007A0FFF7CAFF40F2DC5000F06CFEBA
:10024000F7E700005E010020085C0040005000401D
:100250004D696E6953544D3332000000704700BF42
:10026000FEE700BFFEE700BFFEE700BFFEE7704706
:1002700070477047704710B502F004FB10BD0000D6
:1002800036490143364A1160704770B5002100239A
:100290000F22C4784CB3324C246804F4E064C4F5F3
:1002A000E0644FEA1421C1F1040322FA01F2447818
:1002B00004FA03F1847804EA020444EA01014FEAF3
:1002C0000111284C0678A155047804F01F054FF061
:1002D000010404FA05F405784FEA65154FF0E026AD
:1002E00006EB8505C5F8004109E0047804F01F0518
:1002F0000124AC401C4D0678761145F8264070BDAF
:100300001A4A0A4002431A4B1A60704741B1194A0F
:10031000126842EA00024FF0E023C3F8102D07E014
:10032000144A126822EA00024FF0E023C3F8102DAD
:100330007047042808D14FF0E021096941F0040119
:100340004FF0E022116107E04FF0E021096921F050
:1003500004014FF0E0221161704700000000FA052F
:100360000CED00E000E400E080E100E080FFFF1F12
:1003700008ED00E010ED00E0DB48006840F001000F
:10038000D949086008464068D8490840D6494860BD
:1003900008460068D6490840D34908600846006806
:1003A00020F4802008600846406820F4FE00486081
:1003B0004FF41F0088607047CB49096821F48031F1
:1003C000C94A11601146096821F480211160B0F515
:1003D000803F03D0B0F5802F0ED106E0C2490968F6
:1003E00041F48031C04A116007E0BF49096841F417
:1003F000A021BD4A116000E000BF00BF704710B5EA
:1004000001460022002300204A11012A02D1B64CE5
:10041000236806E0022A02D1B34C236A01E0B24C01
:10042000636A01F01F02012494401C4201D00120A4
:1004300000E0002010BD70B500240025002600BF9C
:100440003120FFF7DCFF0646641CB4F5A06F01D035
:10045000002EF5D03120FFF7D2FF08B1012500E0D2
:100460000025284670BD014600209F4A106820F0F4
:10047000F80040EAC100106070479E49086070476C
:1004800002460020984B586820F47C1042EA010391
:100490001843954B58607047964908667047014667
:1004A0000020914A506820F00300084350607047D4
:1004B0008D48406800F00C007047014600208A4AD1
:1004C000506820F0F000084350607047014600205B
:1004D000854A506820F4E060084350607047014648
:1004E0000020814A506820F4605040EAC10050600A
:1004F000704729B17C4A527A02437B4B5A7206E01C
:10050000794A527AC343DBB21A40774B5A7270472A
:1005100079490860704701460020734A506820F40A
:1005200040400843506070470021744A11706E4A81
:1005300082F82010012802D0042808D103E001210C
:100540006E4A117004E005216C4A117000E000BF92
:1005500000BF70476A49086070476349096A0143F0
:10056000614A1162704767490860704730B50021E1
:100570000022002400235C4D6D6805F00C0121B1C0
:10058000042905D0082923D105E05F4D056022E04C
:100590005D4D05601FE0544D6D6805F47012524DBD
:1005A0006D6805F48034022505EB92421CB9574D65
:1005B000554305600BE04C4D6D6815F4003F03D0CA
:1005C000524D5543056002E04F4D5543056002E032
:1005D0004D4D056000BF00BF434D6D6805F0F00153
:1005E00009094B4D6B5C0568DD4045603E4D6D680B
:1005F00005F4E061090A464D6B5C4568DD408560A5
:10060000394D6D6805F46051C90A414D6B5C456810
:10061000DD40C560344D6D6805F44041890B3D4DAA
:100620006B5CC568B5FBF3F5056130BD29B12E4A99
:10063000526902432C4B5A6104E02B4A52698243AF
:10064000294B5A61704729B1274A92690243264BC8
:100650009A6104E0244A92698243234B9A6170476D
:1006600029B1214AD26902431F4BDA6104E01E4AD4
:10067000D26982431C4BDA61704729B11A4AD268A9
:100680000243194BDA6004E0174AD2688243164BE2
:10069000DA60704729B1144A12690243124B1A6199
:1006A00004E0114A126982430F4B1A6170471A49DC
:1006B000086070470F49C86470470B49C87170479C
:1006C0000948406A40F08070074948627047014617
:1006D0000020054A92680A4201D0012000E0002073
:1006E0007047014988727047001002400000FFF80F
:1006F000FFFFF6FE00004242D800424220100240B6
:10070000800442423C04424200127A0000093D004B
:10071000000000201000002040044242014600205A
:10072000FF4A106800F03800084310607047FC4929
:10073000096821F00801FA4A11601146096801436D
:1007400011607047F649096821F01001F44A116000
:1007500011460968014311607047F248F04948604A
:10076000F14848607047EF48ED494860EE484860FE
:100770007047EB48006940F08000E9490861704724
:10078000E748006940F08000E549086170470420AF
:10079000E349C96801F00101012901D101200EE0FE
:1007A000DF49C96811F0040F01D0022007E0DC49DD
:1007B000C96811F0100F01D0032000E00420704739
:1007C00000B502460423FFF7E2FF034603E0FFF70C
:1007D000DEFF0346521E012B01D1002AF7D102B9D8
:1007E0000523184600BD30B5044604254FF43020DB
:1007F000FFF7E6FF0546042D17D1C948006940F010
:100800000200C749086108464461006940F04000A1
:1008100008614FF43020FFF7D3FF0546C048006958
:1008200041F6FD710840BE490861284630BD10B54B
:1008300004244FF43020FFF7C3FF0446042C16D1E4
:10084000B748006940F00400B549086108460069EE
:1008500040F0400008614FF43020FFF7B1FF04463C
:10086000AF48006941F6FB710840AD490861204678
:1008700010BD00B502460423FFF789FF034603E0DD
:10088000FFF785FF0346521E012B01D1002AF7D145
:1008900002B90523184600BD10B504244FF43020DA
:1008A000FFF7E7FF0446042C16D19D48006940F08D
:1008B00004009B4908610846006940F04000086157
:1008C0004FF43020FFF7D5FF04469548006941F604
:1008D000FB71084092490861204610BD00209049F4
:1008E000C96911F0020F01D0012000E0002070471B
:1008F00030B5A5250424FFF7F1FF00B100254FF422
:100900003020FFF75DFF0446042C3BD18548844925
:100910008860854888600846006940F020000861CA
:100920000846006940F0400008614FF43020FFF7AE
:1009300047FF0446042C1CD17948006941F6DF7159
:100940000840774908610846006940F010000861D6
:10095000764805804FF40050FFF732FF0446052C1F
:1009600010D06F48006941F6EF7108406C4908618A
:1009700008E0052C06D06A48006941F6EF7108408E
:1009800067490861204630BDF0B504460D4604268F
:100990000027F002FFF714FF0646042E22D160481C
:1009A000006940F001005E4908612580F002FFF710
:1009B00007FF0646042E0ED1A71C280C3880F00233
:1009C000FFF7FEFE06465648006941F6FE710840F4
:1009D0005349086106E05248006941F6FE7108403B
:1009E0004F4908613046F0BD70B504460D460426F7
:1009F000F002FFF7E5FE0646042E11D148480069D3
:100A000040F00100464908612580F002FFF7D8FE5A
:100A100006464348006941F6FE71084040490861B6
:100A2000304670BD70B505460E460424E002FFF75F
:100A3000C7FE0446042C17D13A48394988603A4821
:100A400088600846006940F0100008612E80E002CE
:100A5000FFF7B6FE0446052C06D03148006941F682
:100A6000EF7108402E490861204670BD2DE9F04322
:100A700004464FF6FF763746B046B1460425E443B8
:100A8000E6B2C4F30727C4F307484FEA1469E80243
:100A9000FFF796FE0546042D3ED122482049886086
:100AA000214888600846006940F010000861FF2E68
:100AB00006D01F4806804FF40050FFF781FE054620
:100AC000042D08D1FF2F06D01A4807804FF400509C
:100AD000FFF776FE0546042D09D1B8F1FF0F06D0C9
:100AE0001548A0F80C88E802FFF76AFE0546042DB9
:100AF00009D1B9F1FF0F06D00F48A0F80E98E8020F
:100B0000FFF75EFE0546052D06D00548006941F653
:100B1000EF710840024908612846BDE8F0830000F3
:100B20000020024023016745AB89EFCD00F8FF1F8D
:100B300008F8FF1F0AF8FF1F00F0FF1F30B5054639
:100B400004244FF43020FFF73BFE0446042C41D12F
:100B50005F4860498860604888600846006940F0E6
:100B6000200008610846006940F0400008614FF429
:100B70003020FFF725FE0446042C22D15548006999
:100B800041F6DF710840534908610846006940F0AA
:100B9000100008611DB100205049088002E0A52026
:100BA0004E4908804FF43020FFF70AFE0446052C1A
:100BB00010D04848006941F6EF7108404549086186
:100BC00008E0052C06D04348006941F6DF71084073
:100BD00040490861204630BDF0B505460E4617462F
:100BE00004243B483B4988603B488860E002FFF7AB
:100BF000E7FD0446042C19D13648006940F0100086
:100C00003449086147F0F8003043284334490880EC
:100C10004FF40050FFF7D4FD0446052C06D02D48B4
:100C2000006941F6EF7108402A4908612046F0BD8D
:100C30002848C069800870472648006A704700202D
:100C40002449096811F0200F01D0012000E00020A4
:100C5000704729B11F4A126902431E4B1A6104E012
:100C60001C4A126982431B4B1A61704701460020DF
:100C7000012908D1174AD26912F0010F01D00120D1
:100C800008E0002006E0134AD2680A4201D00120A1
:100C900000E0002070470F49C860704704200D49EC
:100CA000C96801F00101012901D101200EE00949C3
:100CB000C96811F0040F01D0022007E00549C96896
:100CC00011F0100F01D0032000E004207047000055
:100CD0002301674500200240AB89EFCD00F8FF1FDC
:100CE00002F8FF1F00210020674A126842F4803298
:100CF000654B1A6000BF644A126802F40030491C58
:100D000010B9B1F5A06FF6D15F4A126812F4003F36
:100D100001D0012000E00020012842D15B4A126886
:100D200042F01002594B1A601A46126822F0030270
:100D30001A601A46126842F002021A60524A526859
:100D4000514B5A601A4652685A601A46526842F429
:100D500080625A601A46526822F47C125A601A461F
:100D6000526842F4E8125A601A46126842F08072E1
:100D70001A6000BF444A126812F0007FFAD0424A5B
:100D8000526822F00302404B5A601A46526842F001
:100D900002025A6000BF3C4A526802F00C02082A64
:100DA000F9D1704710B5FFF79DFF10BD10B536485B
:100DB000006840F001003449086008464068344942
:100DC00008403149486008460068324908402E49C9
:100DD00008600846006820F48020086008464068E3
:100DE00020F4FE0048604FF41F008860FFF7DAFF30
:100DF0004FF000602849086010BD10B500210020A8
:100E00000022214B5B6803F00C0121B1042906D0BC
:100E1000082928D107E0214B214C236027E01F4BF4
:100E20001F4C236023E0184B5B6803F47010164BD3
:100E30005B6803F48032022303EB904022B9194B24
:100E40004343174C23600DE00F4B5B6813F4003FE6
:100E500004D0144B4343124C236003E00F4B434335
:100E60000F4C236003E00D4B0D4C236000BF00BF0F
:100E7000054B5B68C3F303130B4CE15C084B1B6829
:100E8000CB40074C236010BD001002400020024000
:100E90000000FFF8FFFFF6FE08ED00E000127A0008
:100EA0001400002000093D00180000200948804778
:100EB00009480047FEE7FEE7FEE7FEE7FEE7FEE73C
:100EC000FEE7FEE7FEE7FEE704480549054A064B54
:100ED00070470000AD0D0008ED000008D8010020AB
:100EE000D8070020D8030020D80300204FF0E021CD
:100EF000096921F004014FF0E0221161C21700EBF3
:100F00005272D2101F4B1A70194609784FF47A7238
:100F100051431D4A1180704701461B4A12884A43BB
:100F20004FF0E0235A6100229A6101221A6100BF4A
:100F30004FF0E022106910F0010F02D010F4803F52
:100F4000F6D000224FF0E0231A619A617047014603
:100F50000C4A12784A434FF0E0235A6100229A610A
:100F600001221A6100BF4FF0E022106910F0010F5A
:100F700002D010F4803FF6D000224FF0E0231A6137
:100F80009A617047280000202A00002010B504460E
:100F90002CB90120FB4909680882002010BDFA49DC
:100FA000096808688047F74800680A30F6E710B516
:100FB000F4480068C078F5494978884213DCF14864
:100FC0000068807878B9EF480068808858B9ED48A3
:100FD0000068C078EB4909688872EB49096848687D
:100FE0008047002010BD0220FCE710B504462CB954
:100FF0000120E44909680882002010BDE24909681F
:1010000088688047DF4800680C30F6E710B5DD4B94
:101010001B68D978DB4B1B685879DD4B1B689A69D4
:1010200090470446D7480068807AE8B13CB9D54873
:101030000068007918B9D3480068807808B10220A8
:1010400010BD8CB9D0490968C8688047CD48006890
:101050004079CC490968C872CA480068C078C94953
:10106000096808730020EBE70220E9E710B50446A1
:101070002CB90220C34909680882002010BD002055
:10108000C4490880BF480068007810F07F0F1CD169
:10109000BC490968487A10F0200F05D0BD4909788D
:1010A00041F00201BB4A117010F0400F06D0B9495F
:1010B000097801F0FE01B74A117005E0B5490978D9
:1010C00041F00101B34A11703AE0AE48006800787F
:1010D00000F07F00012801D1AE48CFE7A9480068A1
:1010E000007800F07F00022828D1A64A12685179C2
:1010F00001F00F0011F0800F0FD0A74A02EB800221
:10110000D2F8002C02F03002102A16D1A14A12782F
:1011100042F001029F4B1A700FE09F4A02EB8002DF
:10112000D2F8002C02F44052B2F5805F05D1994A02
:10113000127842F00102974B1A7001E000209DE7FF
:101140009149096808698047924897E72DE9F04777
:101150008C480068007800F07F08B8F1000F0AD1D1
:1011600088480068407A00F0DF00864909684872C4
:101170000020BDE8F087B8F1020F7DD181480068FA
:10118000408818B97F480068007908B10220F0E76C
:10119000DFF8F8917B480068477927F080052C46F6
:1011A00078480068407910F0800F07D07A4800EB4B
:1011B0008400D0F8000C00F0300606E0764800EB22
:1011C0008400D0F8000C00F4405699F80000A842C2
:1011D00004D91EB16B480068807A08B90220C8E7BC
:1011E00017F0800F10D06C4800EB8400D0F8000C92
:1011F00000F03000102845D1E0B201F045F8302170
:10120000E0B200F0DDFE3DE0634800EB8400D0F882
:10121000000C00F44050B0F5805F33D1CCB95F488A
:1012200090F82C10E0B201F0C4F85B4901EB8401A6
:10123000D1F8001C89B24CF68F7201EA020080F4EA
:10124000805080F40050544901EB8401C1F8000C37
:1012500018E0E0B200F0FFFF4F4901EB8401D1F844
:10126000001C89B24CF68F7201EA020080F48050B3
:1012700080F40050484900E00AE001EB8401C1F825
:10128000000C00BF4049096848698047002070E7AA
:1012900000BF02206DE72DE9F0413A480068467929
:1012A00026F080073C4637480068407910F0800FF0
:1012B00007D0394800EB8400D0F8000C00F030056E
:1012C00006E0354800EB8400D0F8000C00F44055EF
:1012D0002E480078A04208D92A480068408820B9E2
:1012E0001DB128480068807A10B90220BDE8F0815D
:1012F00016F0800F11D0284901EB8401D1F8001CB1
:1013000089B248F6BF7201EA020080F0100022495B
:1013100001EB8401C1F8000C11E01F4901EB8401CD
:10132000D1F8001C89B24CF68F7201EA020080F4F9
:101330008050194901EB8401C1F8000C00BF12492B
:101340000968886980470020D0E710B50D4800681B
:10135000407A40F020000B49096848720A49096840
:10136000C8698047002010BD10B5024605480068D6
:10137000438AAAB98888C01A024C246820820020B7
:1013800010BD000034000020400000208800002034
:10139000380000202E000020005000408C0000206B
:1013A00008681844ECE72DE9F041FF48006800F1B7
:1013B00010042688A068C0B1BEB1A588B54200D986
:1013C0003546A8B2A168884707462088401B208080
:1013D000608828446080002000F0BBFF8046AAB2ED
:1013E0000146384600F090FD00BF208880B14FF4E0
:1013F0004050EE4908800021ED48006880B200F1BD
:101400000200EC4A42F810104FF03000EA49088020
:101410002088A188884204DB0320E3490968087218
:101420001AE02088002804DD0520DF4909680872D9
:1014300012E0208880B90620DB4909680872002183
:10144000DB48006880B200F10200DA4A42F810106E
:101450004FF03000D8490880BDE8F0812DE9F04711
:10146000D148006800F110052E88CF480068077A3F
:10147000EEB9042F1BD1D1480078012812D10021E8
:10148000CB48006880B200F10200CA4A42F810104E
:101490004FF03000C849088000BF4FF00000C74936
:1014A000087003E007271020C34908802EE0AC88AD
:1014B000A64201D8042000E002200746B44200D929
:1014C0003446A0B2A96888478046002000F036FF65
:1014D0008146A2B20146404600F0FCFCB4480068D8
:1014E00080B200F10200B34941F810402888A0EB17
:1014F000040028806888204468804FF03000AE499E
:1015000008804FF44050A949088000BFA6490968E7
:101510000F72BDE8F08770B50226A34800684478D2
:10152000A1480068007810F07F0F4BD1012C33D018
:10153000032C1CD0052C05D0092C42D1FFF737FD18
:1015400006463EE098480068C0787F280BDC964845
:101550000068807838B994480068808818B9924843
:101560000068807A08B108256AE0002629E08E48E4
:101570000068C07801280DD18B480068808848B980
:1015800089480068407A10F0200F03D0FFF7DDFE95
:10159000064600E0022614E083480068C07801286F
:1015A0000DD181480068808848B97F480068407A3A
:1015B00010F0200F03D0FFF7C9FD064600E0022619
:1015C00000BF20E078480068007800F07F00012824
:1015D00005D10B2C17D1FFF719FD064613E0724811
:1015E0000068007800F07F0002280BD1012C03D1A5
:1015F000FFF7ACFD064606E0032C04D1FFF74BFED7
:10160000064600E002264EB16D4800684169E0B22E
:1016100088470646032E01D1092511E00EB10825A1
:101620000EE0062500216248006880B200F1020049
:10163000604A42F810104FF030005F49088000BF48
:10164000594909680D7270BD2DE9F05F5648006870
:1016500045780027BB46062D1DD153480068007809
:1016600010F07F0F16D1504909688878012804D0FE
:10167000022806D003280CD107E051490968CF6938
:1016800007E04F4909680F6A03E04D4909684F6A4E
:1016900000BF00BFA8E085BB43480068408860BB2E
:1016A00041480068C08802285BD13F480068007943
:1016B00018BB3D480068007810F07F0F06D13A480B
:1016C0000068808810B9AFF25B678DE0364800682B
:1016D000007800F07F00012810D13349096848796B
:1016E000374909688A6900219047C8BB2E480068BD
:1016F000807AA8B3AFF28B6776E032E02A480068C0
:10170000007800F07F0002286ED1274800684079F9
:1017100000F00F0624480068407900F07009224864
:101720000068407910F0800F07D0264800EB860053
:10173000D0F8000C00F0300806E0224800EB8600EC
:10174000D0F8000C00F440581F480078B0424BD944
:10175000B9F1000F48D1B8F1000F45D0AFF2F367EF
:1017600042E0082D08D110480068007810F07F0F83
:101770003AD1AFF2E77737E00A2D35D10A48006851
:10178000007800F07F0001282ED107480068807A99
:1017900050B305480068408830BB034800680079B2
:1017A00010BB0148006811E0340000204400002014
:1017B000505C004000600040460000202C000020EB
:1017C000380000200050004088000020C088012818
:1017D0000AD1B64909684879B54909688A6900217A
:1017E000904708B9AFF2FD7757B1B0480068A0F84C
:1017F00012B0AE48006887610020B84700240FE0AF
:10180000AA4A12685078AA4A1268116988470446A1
:10181000032C05D10920A54909680872BDE8F09F8D
:10182000A2480068008AA0F57F41FF3904D1092051
:101830009E4909680872F1E7022C03D09B480068B2
:10184000008A20B90820994909680872E6E7974894
:101850000068007810F0800F3BD094480068B0F822
:1018600006A092480068008A504504D98F4909684B
:10187000A1F810A023E08D480068008A8B49096810
:10188000C98888421BDA89480068008A8849096843
:1018900091F82C10884203DA0020864908700EE087
:1018A00082480068008A8249096891F82C1090FBF0
:1018B000F1F201FB120010B901207E4908707C484A
:1018C000006890F82C10794800688182FFF7C6FD07
:1018D00006E003207549096808720003764908800C
:1018E00000BF9BE710B5754890F82C10002000F061
:1018F00060FD6E480068007A082805D140026E49F4
:10190000088010206E49088068480068007A09281D
:1019100001D1012000E00020C0B210BD08B5694827
:10192000006880B200F10400674951F8100080B2ED
:1019300001EB400000905D480068007A09282FD034
:10194000009800785949096808700098401C009078
:10195000009800785549096848700098401C00902C
:101960000098801C0090009931F8020B009100F063
:10197000DDFE4E49096848800098801C009000995F
:1019800031F8020B009100F0D1FE484909688880C7
:101990000098801C00900098008844490968C8801D
:1019A000012042490968087240480068C08810B99F
:1019B000FFF7B1FD01E0FFF747FEFFF793FF08BD1A
:1019C00030B50146414B1A78002012E00306404C26
:1019D00004EB9353D3F8003C9BB248F68F7423403A
:1019E000C4B2234304063A4D05EB9454C4F8003CBA
:1019F000401C9042EAD341F08003364C236030BD56
:101A000010B52A480068047A022C01D0042C05D1B4
:101A1000FFF724FD25480068047A1CE0062C19D144
:101A200022480068407805280ED1204800680078D8
:101A300010F07F0F08D11D490968C878FFF7C0FF73
:101A400025490968086A80471949096888688047F4
:101A5000082400E00824154909680C72FFF742FFCA
:101A600010BD10B511480068047A032C01D0052C74
:101A700005D1FFF798FC0D480068047A0EE0072CAA
:101A800005D10B490968C8688047082406E0022C84
:101A900001D0042C01D1082400E00824034909687E
:101AA0000C72FFF71FFF10BD7047000034000020CC
:101AB000380000202C000020440000208C00002072
:101AC00046000020505C004000600040880000207C
:101AD000005000404C5C00404000002010B5084819
:101AE0000849086002200968087207480749086029
:101AF000074808490860054909680868804710BD1B
:101B00002C010020340000208C0000203800002030
:101B1000BC0000204000002010B500246FE147F613
:101B2000FF70E4490860E448008800F00F00E349D2
:101B3000087008460078F0BBE148006800F44050A7
:101B4000E0490880E048D0F8000C00F03000DF49A0
:101B50000880DB49096889B24CF68F7201EA0200FD
:101B600080F40050D849C1F8000CD549096889B201
:101B700048F6BF7201EA020080F02000D249C1F8A5
:101B8000000CCD48008810F0100F3DD1CC48006803
:101B900080B248F60F7100EA0100CB49C1F8000C91
:101BA000FFF72EFFC649096889B24CF68F7201EA29
:101BB0000200C44900E0E9E0098811F4805F01D027
:101BC00080F48050BF49098811F4005F01D080F48F
:101BD0000050BB490860BC49D1F8001C89B248F6E6
:101BE000BF7201EA0200B949098811F0100F01D053
:101BF00080F01000B549098811F0200F01D080F065
:101C00002000AF49086010BDAD48006884B214F0F0
:101C1000800F3BD0AA48006880B248F60F7100EAF6
:101C20000100A949C1F8000CFFF7EAFEA4490968C0
:101C300089B24CF68F7201EA0200A249098811F4B8
:101C4000805F01D080F480509E49098811F4005FC4
:101C500001D080F400509A4908609B49D1F8001CDB
:101C600089B248F6BF7201EA02009849098811F06A
:101C7000100F01D080F010009449098811F0200F56
:101C800001D080F020008E490860BCE714F4006F9A
:101C90003CD08B480068C0F30E0048F68F7100EA14
:101CA00001008949C1F8000CFFF738FE8449096832
:101CB00089B24CF68F7201EA02008249098811F458
:101CC000805F01D080F480507E49098811F4005F64
:101CD00001D080F400507A4908607B49D1F8001C9B
:101CE00089B248F6BF7201EA02007849098811F00A
:101CF000100F01D080F010007449098811F0200FF6
:101D000001D080F020006E4908607CE714F4004F99
:101D100075D06B480068C0F30E0048F68F7100EA7A
:101D200001006949C1F8000CFFF79BFE644909688E
:101D300089B24CF68F7201EA02006249098811F4F7
:101D4000805F01D080F480505E49098811F4005F03
:101D500001D080F400505A4908605B49D1F8001C5A
:101D600089B248F6BF7201EA02005849098811F0A9
:101D7000100F01D080F010005449098811F0200F95
:101D800001D080F020004E4908603CE74B480078C5
:101D90004D4901EB8000D0F8000C84B214F4004FE0
:101DA00018D04648007801EB8000D0F8000CC0F352
:101DB0000E0048F68F71084040490978424A02EB0C
:101DC0008101C1F8000C3D490978491E404A52F88A
:101DD0002100804714F0800F11D0384800783A492C
:101DE00001EB8000D0F8000C80B248F60F7108407B
:101DF00032490978344A02EB8101C1F8000C2D48C0
:101E0000006880B22C49088010F4004F7FF487AE40
:101E100000BFF8E610B5002443E047F6FF702549FF
:101E200008602548008800F00F0024490870084623
:101E30000078254901EB8000D0F8000C84B214F43E
:101E4000004F19D01D48007801EB8000D0F8000C3D
:101E5000C0F30E0048F68F710840184909781A4AF5
:101E600002EB8101C1F8000C14490978491E184A97
:101E700052F82100804714E014F0800F11D00F4871
:101E80000078114901EB8000D0F8000C80B248F6D0
:101E90000F710840094909780B4A02EB8101C1F82A
:101EA000000C0448006880B20349088010F4004F19
:101EB000B3D110BD445C00408400002030000020FD
:101EC000005C00404400002000500040460000201C
:101ED00068000020F0B5144604F1010C4FEA6C07CD
:101EE000DFF844C00CEB41033D460AE00678401C95
:101EF00090F800C046EA0C2223F8022B9B1C401CE1
:101F00006D1E002DF2D1F0BDF0B5561C7510064EB9
:101F100006EB41042B4604E080CC20F8017B401CFA
:101F20005B1E002BF8D1F0BD00600040FC4908604A
:101F30007047FB48006880B27047FA4908607047F4
:101F4000F848006880B27047F748006880B2704770
:101F5000F64908607047F548006880B270474FF650
:101F6000F8710140F24A11607047F148006880B290
:101F70007047F04A02EB8002C2F8001C704701462D
:101F8000EC4800EB8100D0F8000C80B27047E94AC1
:101F900002EB8002D2F8002C92B248F68F131A405E
:101FA0000A43E44B03EB8003C3F8002C704701465F
:101FB000E04800EB8100D0F8000C00F4C0607047EE
:101FC00010B5DC4B03EB8003D3F8003C9BB248F622
:101FD000BF7403EA040211F0100F01D082F0100266
:101FE00011F0200F01D082F02002D24B03EB8003CE
:101FF000C3F8002C10BD10B5CE4B03EB8003D3F813
:10200000003C9BB24CF68F7403EA040211F4805F2B
:1020100001D082F4805211F4005F01D082F40052AA
:10202000C44B03EB8003C3F8002C10BD10B502466F
:102030000B461046FFF7A3FF0446012B07D124F4FB
:102040008050BC4901EB8201C1F8000C08E0022B72
:1020500006D124F01000B74901EB8201C1F8000C51
:1020600010BD0146B34800EB8100D0F8000C00F031
:10207000300070470146AF4800EB8100D0F8000CFB
:1020800000F440507047AB4A02EB8002D2F8002CBB
:1020900092B248F6BF7302EA030181F0100181F0A9
:1020A0002001A44A02EB8002C2F8001C7047A14A3A
:1020B00002EB8002D2F8002C92B24CF68F7302EA47
:1020C000030181F4805181F400519A4A02EB8002AD
:1020D000C2F8001C7047974901EB8001D1F8001C41
:1020E00089B241F4807148F68F721140914A02EB37
:1020F0008002C2F8001C70478E4901EB8001D1F8C4
:10210000001C89B248F68F6211408A4A02EB8002B5
:10211000C2F8001C7047874901EB8001D1F8001C10
:1021200089B248F68F621140824A02EB8002C2F8FF
:10213000001C70477F4901EB8001D1F8001C89B277
:1021400041F4807148F68F7211407A4A02EB8002A6
:10215000C2F8001C7047774901EB8001D1F8001CE0
:1021600089B241F4807148F68F721140714A02EBD6
:102170008002C2F8001C70476E4901EB8001D1F863
:10218000001C89B248F68F6211406A4A02EB800255
:10219000C2F8001C70470146664800EB8100D0F889
:1021A000000C00F03000102801D1012000E00020D8
:1021B00080B2704701465F4800EB8100D0F8000C08
:1021C00000F44050B0F5805F01D1012000E0002014
:1021D00080B27047574901EB8001D1F8001CC1F370
:1021E0000E0148F68F721140524A02EB8002C2F88B
:1021F000001C70474F4901EB8001D1F8001C89B2E7
:1022000048F60F7211404B4A02EB8002C2F8001CE4
:102210007047484901EB8001D1F8001C89B248F6AB
:102220008F72114041F48041424A02EB8002C2F8B1
:10223000001C70473F4901EB8001D1F8001C89B2B6
:1022400048F68F72114041F040013A4A02EB800299
:10225000C2F8001C7047374901EB8001D1F8001C1F
:1022600011F4804F0FD0334901EB8001D1F8001CED
:1022700089B248F68F72114041F480412D4A02EB39
:102280008002C2F8001C70472A4901EB8001D1F896
:10229000001C11F0400F0FD0264901EB8001D1F84E
:1022A000001C89B248F68F72114041F04001214A6A
:1022B00002EB8002C2F8001C70471E4A02EB80024B
:1022C000D2F8002C92B248F68F731A400A43194B89
:1022D00003EB8003C3F8002C70470146154800EB60
:1022E0008100D0F8000C00F00F00704710B54A10C4
:1022F00053000F4A126892B202EBC0020E4C44F82F
:10230000123010BD10B54A105300094A126892B23B
:1023100002EBC00202F10402074C44F8123010BD77
:10232000405C0040445C0040485C00404C5C004025
:10233000505C004000500040006000400146F848FA
:10234000006880B200EBC100F64A52F8100080B27B
:1023500070470146F248006880B200EBC10000F10E
:102360000400F04A52F8100080B27047EC4A12683C
:1023700092B202EBC00202F10202EA4B43F81210E1
:10238000704702463E290BDD481111F01F0F01D1A5
:10239000431E98B24FF4004343EA8023136007E0E2
:1023A000481011F0010F01D0431C98B28302136052
:1023B000704710B50246DA48006880B200EBC200F0
:1023C00000F10600D74C04EB40033E290BDD481119
:1023D00011F01F0F01D1441EA0B24FF4004444EA93
:1023E00080241C6007E0481011F0010F01D0441C4C
:1023F000A0B284021C6010BD0146C948006880B2CA
:1024000000EBC10000F10200C64A52F81000C0F310
:10241000090070470146C248006880B200EBC10065
:1024200000F10600BF4A52F81000C0F309007047DF
:1024300030B54B105C00BA4B1B689BB203EBC0037A
:10244000B84D45F813404FEA62034FEA4304B64BD8
:10245000D3F8503C9BB203EBC00303F1040345F8EF
:10246000134030BD10B54A105300AD4A126892B205
:1024700002EBC002AB4C44F8123010BD10B54A104C
:102480005300A74A126892B202EBC00202F10402A2
:10249000A44C44F8123010BD0146A148006880B237
:1024A00000EBC1009F4A52F8100080B2704701460D
:1024B0009B48006880B200EBC10000F10400994A1B
:1024C00052F8100080B2704730B50B46012B20D176
:1024D0009349096889B201EBC00101F10201914DF4
:1024E00005EB41043E2A0BDD511112F01F0F01D103
:1024F0004D1EA9B24FF4004545EA8125256007E04D
:10250000511012F0010F01D04D1CA9B28D022560AF
:102510000BE0022B09D18249096889B201EBC001A5
:1025200001F102017F4C44F81120012B20D17C499C
:10253000096889B201EBC00101F10601794D05EB93
:1025400041043E2A0BDD511112F01F0F01D14D1E27
:10255000A9B24FF4004545EA8125256007E05110F6
:1025600012F0010F01D04D1CA9B28D0225600BE0C5
:10257000022B09D16A49096889B201EBC00101F156
:102580000601684C44F8112030BD30B503460129DE
:1025900020D16348006880B200EBC30000F1020064
:1025A000604D05EB40043E2A0BDD501112F01F0F69
:1025B00001D1451EA8B24FF4004545EA80252560AB
:1025C00007E0501012F0010F01D0451CA8B285029F
:1025D00025600BE0022909D15148006880B200EB68
:1025E000C30000F102004F4C44F8102030BD30B55C
:1025F0000346012920D14A48006880B200EBC3009D
:1026000000F10600474D05EB40043E2A0BDD50115A
:1026100012F01F0F01D1451EA8B24FF4004545EA44
:102620008025256007E0501012F0010F01D0451CF5
:10263000A8B2850225600BE0022909D1384800685C
:1026400080B200EBC30000F10600364C44F81020C5
:1026500030BD01463248006880B200EBC10000F195
:102660000200304A52F81000C0F3090070470146DA
:102670002B48006880B200EBC10000F10600294A37
:1026800052F81000C0F30900704701462448006862
:1026900080B200EBC10000F10600224A52F810009F
:1026A00010F47C4F01D0012070471D48006880B2B3
:1026B00000EBC10000F102001A4A52F81000800538
:1026C000800D01D00220EFE70020EDE7012910D1B5
:1026D000154A02EB8002D2F8002C92B248F68F73B2
:1026E0001A4042F04002104B03EB8003C3F8002C69
:1026F00011E002290FD10C4A02EB8002D2F8002C23
:1027000092B248F68F731A4042F48042064B03EBB4
:102710008003C3F8002C7047024641EA022070474C
:10272000505C004000600040005000400146CAB2CA
:102730000B1243EA0220704710B5FDF71DFE4FF45F
:102740008030FDF739FEFDF776FE3D4908700846FA
:102750000078012826D11020FDF7F4FF0220FDF7B4
:10276000DDFF0020FDF7A9FE0020FDF7B8FE4FF4C5
:102770008060FDF7ABFE4FF4E0114FF48030FDF7C1
:102780007FFE0120FDF788FE00BF3920FDF737FEF0
:102790000028FAD00220FDF782FE00BFFDF788FE78
:1027A0000828FBD101210420FDF74DFF10BD10B515
:1027B0000020FDF7ADFE0121C805FDF751FF10BD5A
:1027C00003202049086070471F48817A19B105210C
:1027D0001C4A116002E001211A4A1160704708B5D5
:1027E00014208DF8000001208DF8010000208DF8E4
:1027F000020001208DF803006846FDF746FD08BD84
:1028000010B5124B1868124BD3F8EC17114B1A681D
:10281000A8B1114CA070030A2371030CA371030E1D
:102820002372A1720B0A23730B0CA3730B0E237478
:10283000A274130A2375130CA375130E237610BD0F
:1028400048000020240100202C010020E8F7FF1F91
:1028500000F0FF1FF0F7FF1F4900002010B5012016
:1028600006490870162298210548FFF74DFB4FF4E2
:1028700040510120FFF7BFFB10BD000063000020A6
:102880004801002010B538480068384908800846DB
:10289000008800F4806036490988084206D06FF449
:1028A0008060314908603349486880472F48008874
:1028B00000F400502E490988084203D06FF40050FC
:1028C000294908602948008800F48050284909886F
:1028D000084207D06FF48050234908604FF0000091
:1028E00000F0E5F92148008800F4006020490988DB
:1028F00008420CD02048007810B100F0B4F902E092
:10290000022000F0D4F96FF40060174908601748FE
:10291000008800F4007016490988084209D06FF455
:102920000070114908601548007800F10100134952
:1029300008700E48008800F480700D49098808422C
:1029400007D06FF48070084908604FF0070000F06E
:10295000AEF90648008800F400400549098808429D
:1029600001D0FFF7D9F810BD445C0040840000207E
:102970003E0000208C000020280100206400002080
:1029800010B5FFF73DFF002094490968887200F0F8
:1029900043F90020924908604FF43F409149088074
:1029A000084600889049C1F8400C4FF000008F495C
:1029B000086010BD10B500208849096888728749F1
:1029C0000968C8728A48C079844909684872002039
:1029D000884908608448D0F8000C80B248F68F110E
:1029E00000EA010040F40070834908604FF01001D4
:1029F0004FF00000FFF7E4FA18210020FFF782FCF7
:102A000058210020FFF772FC7748D0F8000C80B204
:102A100048F68F6108407449C1F8000C774890F877
:102A20002C100020FFF7C5FC6F49D1F8001C89B2BB
:102A30004CF68F7201EA020080F4805080F400505E
:102A40006D4908604FF4C0614FF00100FFF79FFA35
:102A500098210120FFF756FC16210120FFF7A9FC61
:102A60004FF440510120FFF7C6FA4FF4C061022035
:102A7000FFF78DFA4FF48C710220FFF737FC162117
:102A80000220FFF773FC20210220FFF799FA0120B2
:102A9000564908600020FEF793FF10BD4F480068BC
:102AA000807A10B1052051490860704704204F49D1
:102AB0000860704770477047014629B90120474AAE
:102AC00012681082002070474D48FCE710B504469C
:102AD0004C492046FEF748FC10BD10B504464A4953
:102AE0002046FEF741FC10BD70B504460025062CBB
:102AF0001AD13A480068007800F07F00012813D10D
:102B000036480068407978B93448006880782228CF
:102B100002D1AFF2390512E03048006880782128F0
:102B20000DD1AFF257050AE02C480068007800F09C
:102B30007F00212803D1032C01D1AFF283050DB909
:102B4000022070BD25480068856100212348006887
:102B500041820020A8470020F3E720480068C178A0
:102B6000274801600020704700B502461B480068F6
:102B7000007800F07F00212804D10B2A02D1FFF752
:102B8000ECFF00BD0220FCE710B504461F492046BB
:102B9000FEF7EAFB10BD10B504461D492046FEF7BE
:102BA000E3FB10BD70B505460C480068C478042CE2
:102BB00001DD002070BD174800EBC4012846FEF778
:102BC000D3FBF7E70246002901DD02207047002A07
:102BD00001DD0220FAE70020F8E7000034000020C1
:102BE000445C00403E0000200050004024010020D2
:102BF000122E0008505C0040005C00408C00002059
:102C000020010020F8000020F0000020E00000205B
:102C1000E8000020000100200120514908604FF029
:102C20000000504908805049C1F8400C4F490860E5
:102C30004FF4E0504B490880084600884A49C1F8E3
:102C4000400C4FF0000070470120454908604FF0EC
:102C500000004549C1F8440C4FF0030040490860AA
:102C60004FF00000704710B53D48006884B244F052
:102C700008043D48C0F8404C3948006884B244F02C
:102C800004043948C0F8404CFFF79AFD10BD10B558
:102C90003348006884B224F004043348C0F8404C40
:102CA000FFF792FD4FF43F402D49086010BD70B50D
:102CB0000546072D01D02E4805702D4800780828BC
:102CC00046D2DFE800F0040A101621314647FFF72C
:102CD000DEFF06202649087040E0FFF7D8FF0420F9
:102CE000234908703AE00220214948700320087007
:102CF00034E01F484078401E1D494870084640781F
:102D000008B90420087029E01548006884B244F02E
:102D100010041548C0F8404C4FF0050014490870E5
:102D20004FF00A00487019E011484078401E1049E1
:102D300048700846407850B90948006884B224F0C9
:102D400010040948C0F8404C4FF00600087005E038
:102D500000BF00BF06200649087000BF00BF70BD5D
:102D6000405C00403E00002000500040445C0040B9
:102D700029010020704770477047754600F028F819
:102D8000AE4605006946534620F00700854618B058
:102D900020B5FEF799F8BDE820404FF000064FF04F
:102DA00000074FF000084FF0000B21F00701AC4680
:102DB000ACE8C009ACE8C009ACE8C009ACE8C0099F
:102DC0008D4670470446AFF300802046FDF7F7F9C3
:102DD000004870477401002001487047704700BFE9
:102DE0007801002001491820ABBEFEE72600020052
:102DF000704710B5FFF7F0FF4FF00001016010BD04
:102E0000120100020000004083045057000201023A
:102E1000030109022900010100C032090400000277
:102E20000300000009211001000122210007058292
:102E30000340002007050103400010058C0901A193
:102E400001090115002600FF750895168102090287
:102E500015002600FF750895169102C004030904A9
:102E60002603530054004D006900630072006F0098
:102E700065006C0065006300740072006F006E00F6
:102E80006900630073002003530054004D003300B9
:102E90003200200043007500730074006D002000B4
:102EA0004800490044000000C82E0008000000202F
:102EB0002C010000280100085C2F00082C010020D4
:102EC000AC06000084010008412D01020304041037
:102ED00009060708090204060884A24A04691801C1
:102EE00021141A03531254124D12331232123102AA
:102EF0001030135D28021C082303011381292B08BD
:102F0000B504122A1B08B7041AE90413692B1B081D
:102F1000C5041A89041A97041AA50441324013A95A
:102F20001A1B089D2429080912041AAD1C11122E1F
:102F30003308121A120832291A3B0832211A2408BF
:102F400029D51A5C0829ED1A600832261A8608323B
:0C2F5000202249B3201A199F1100000034
:04000005080000ED02
:00000001FF
